{
  "contractName": "Election",
  "abi": [
    {
      "inputs": [],
      "payable": false,
      "stateMutability": "nonpayable",
      "type": "constructor"
    },
    {
      "constant": true,
      "inputs": [],
      "name": "CandidateCount",
      "outputs": [
        {
          "internalType": "uint256",
          "name": "",
          "type": "uint256"
        }
      ],
      "payable": false,
      "stateMutability": "view",
      "type": "function"
    },
    {
      "constant": true,
      "inputs": [
        {
          "internalType": "uint256",
          "name": "",
          "type": "uint256"
        }
      ],
      "name": "candidates",
      "outputs": [
        {
          "internalType": "uint256",
          "name": "id",
          "type": "uint256"
        },
        {
          "internalType": "string",
          "name": "name",
          "type": "string"
        },
        {
          "internalType": "uint256",
          "name": "voteCount",
          "type": "uint256"
        }
      ],
      "payable": false,
      "stateMutability": "view",
      "type": "function"
    },
    {
      "constant": true,
      "inputs": [
        {
          "internalType": "address",
          "name": "",
          "type": "address"
        }
      ],
      "name": "votedornot",
      "outputs": [
        {
          "internalType": "bool",
          "name": "",
          "type": "bool"
        }
      ],
      "payable": false,
      "stateMutability": "view",
      "type": "function"
    },
    {
      "constant": false,
      "inputs": [
        {
          "internalType": "uint256",
          "name": "_id",
          "type": "uint256"
        }
      ],
      "name": "Vote",
      "outputs": [],
      "payable": false,
      "stateMutability": "nonpayable",
      "type": "function"
    }
  ],
  "bytecode": "0x608060405234801561001057600080fd5b506100556040518060400160405280600d81526020017f4e6172656e647261204d6f6469000000000000000000000000000000000000008152506100e260201b60201c565b6100996040518060400160405280600f81526020017f596f6769204164697479614e61746800000000000000000000000000000000008152506100e260201b60201c565b6100dd6040518060400160405280600c81526020017f526168756c2047616e64686900000000000000000000000000000000000000008152506100e260201b60201c565b610201565b6000808154809291906001019190505550604051806060016040528060005481526020018281526020016000815250600160008054815260200190815260200160002060008201518160000155602082015181600101908051906020019061014b92919061015c565b506040820151816002015590505050565b828054600181600116156101000203166002900490600052602060002090601f016020900481019282601f1061019d57805160ff19168380011785556101cb565b828001600101855582156101cb579182015b828111156101ca5782518255916020019190600101906101af565b5b5090506101d891906101dc565b5090565b6101fe91905b808211156101fa5760008160009055506001016101e2565b5090565b90565b6103c5806102106000396000f3fe608060405234801561001057600080fd5b506004361061004c5760003560e01c80631bc57022146100515780633477ee2e146100ad5780638dd32e1514610162578063dcd6a5cd14610180575b600080fd5b6100936004803603602081101561006757600080fd5b81019080803573ffffffffffffffffffffffffffffffffffffffff1690602001909291905050506101ae565b604051808215151515815260200191505060405180910390f35b6100d9600480360360208110156100c357600080fd5b81019080803590602001909291905050506101ce565b6040518084815260200180602001838152602001828103825284818151815260200191508051906020019080838360005b8381101561012557808201518184015260208101905061010a565b50505050905090810190601f1680156101525780820380516001836020036101000a031916815260200191505b5094505050505060405180910390f35b61016a610290565b6040518082815260200191505060405180910390f35b6101ac6004803603602081101561019657600080fd5b8101908080359060200190929190505050610296565b005b60026020528060005260406000206000915054906101000a900460ff1681565b6001602052806000526040600020600091509050806000015490806001018054600181600116156101000203166002900480601f0160208091040260200160405190810160405280929190818152602001828054600181600116156101000203166002900480156102805780601f1061025557610100808354040283529160200191610280565b820191906000526020600020905b81548152906001019060200180831161026357829003601f168201915b5050505050908060020154905083565b60005481565b600260003373ffffffffffffffffffffffffffffffffffffffff1673ffffffffffffffffffffffffffffffffffffffff16815260200190815260200160002060009054906101000a900460ff16156102ed57600080fd5b60006001600083815260200190815260200160002060000154141561031157600080fd5b6001806000838152602001908152602001600020600201600082825401925050819055506001600260003373ffffffffffffffffffffffffffffffffffffffff1673ffffffffffffffffffffffffffffffffffffffff16815260200190815260200160002060006101000a81548160ff0219169083151502179055505056fea265627a7a72315820e276b40f489ff47d6ed2e9d60b406a605474d6c82c77004345a0abe5edb9196164736f6c63430005100032",
  "source": "// SPDX-License-Identifier: MIT\r\npragma solidity >=0.5.0;\r\n\r\ncontract Election{\r\n    struct Candidate{\r\n        uint id;\r\n        string name;\r\n        uint voteCount;\r\n    }\r\n\r\n    uint public CandidateCount;\r\n\r\n    mapping(uint=>Candidate) public candidates;\r\n    mapping(address=>bool) public votedornot;\r\n\r\n    constructor() public{\r\n    addCandidate('Narendra Modi');\r\n    addCandidate('Yogi AdityaNath');\r\n    addCandidate('Rahul Gandhi');\r\n\r\n    }\r\n\r\n    function addCandidate(string memory name) private{\r\n        CandidateCount++;\r\n        candidates[CandidateCount]=Candidate(CandidateCount,name,0);\r\n    }\r\n    \r\n    function Vote(uint _id) public{\r\n        require(!votedornot[msg.sender]);\r\n        require(candidates[_id].id!=0);\r\n        candidates[_id].voteCount+=1;\r\n\r\n        votedornot[msg.sender]=true;\r\n    }\r\n\r\n\r\n}",
  "sourcePath": "C:/Users/Arpit/Desktop/Real DAPP/contracts/Election.sol",
  "compiler": {
    "name": "solc",
    "version": "0.5.16+commit.9c3226ce.Emscripten.clang"
  },
  "schemaVersion": "3.2.3",
  "updatedAt": "2022-02-19T08:25:48.594Z",
  "networkType": "ethereum",
  "devdoc": {
    "methods": {}
  },
  "userdoc": {
    "methods": {}
  }
}